{
  "contractName": "TicketFactory",
  "abi": [
    {
      "anonymous": false,
      "inputs": [
        {
          "indexed": false,
          "internalType": "uint256",
          "name": "ticketId",
          "type": "uint256"
        },
        {
          "indexed": false,
          "internalType": "enum TicketFactory.Category",
          "name": "category",
          "type": "uint8"
        },
        {
          "indexed": false,
          "internalType": "uint256",
          "name": "expires_at",
          "type": "uint256"
        }
      ],
      "name": "NewTicket",
      "type": "event"
    },
    {
      "anonymous": false,
      "inputs": [
        {
          "indexed": true,
          "internalType": "address",
          "name": "previousOwner",
          "type": "address"
        },
        {
          "indexed": true,
          "internalType": "address",
          "name": "newOwner",
          "type": "address"
        }
      ],
      "name": "OwnershipTransferred",
      "type": "event"
    },
    {
      "anonymous": false,
      "inputs": [
        {
          "indexed": false,
          "internalType": "uint256",
          "name": "ticketId",
          "type": "uint256"
        },
        {
          "indexed": false,
          "internalType": "address",
          "name": "agent",
          "type": "address"
        },
        {
          "indexed": false,
          "internalType": "uint256",
          "name": "created_at",
          "type": "uint256"
        }
      ],
      "name": "TicketScanned",
      "type": "event"
    },
    {
      "inputs": [],
      "name": "owner",
      "outputs": [
        {
          "internalType": "address",
          "name": "",
          "type": "address"
        }
      ],
      "stateMutability": "view",
      "type": "function",
      "constant": true
    },
    {
      "inputs": [],
      "name": "renounceOwnership",
      "outputs": [],
      "stateMutability": "nonpayable",
      "type": "function"
    },
    {
      "inputs": [
        {
          "internalType": "uint256",
          "name": "",
          "type": "uint256"
        }
      ],
      "name": "scans",
      "outputs": [
        {
          "internalType": "address",
          "name": "agent",
          "type": "address"
        },
        {
          "internalType": "uint256",
          "name": "created_at",
          "type": "uint256"
        }
      ],
      "stateMutability": "view",
      "type": "function",
      "constant": true
    },
    {
      "inputs": [
        {
          "internalType": "uint256",
          "name": "",
          "type": "uint256"
        }
      ],
      "name": "tickets",
      "outputs": [
        {
          "internalType": "enum TicketFactory.Category",
          "name": "category",
          "type": "uint8"
        },
        {
          "internalType": "uint256",
          "name": "expires_at",
          "type": "uint256"
        },
        {
          "internalType": "uint8",
          "name": "validations",
          "type": "uint8"
        }
      ],
      "stateMutability": "view",
      "type": "function",
      "constant": true
    },
    {
      "inputs": [
        {
          "internalType": "address",
          "name": "newOwner",
          "type": "address"
        }
      ],
      "name": "transferOwnership",
      "outputs": [],
      "stateMutability": "nonpayable",
      "type": "function"
    },
    {
      "inputs": [
        {
          "internalType": "enum TicketFactory.Category",
          "name": "_category",
          "type": "uint8"
        }
      ],
      "name": "createTicket",
      "outputs": [],
      "stateMutability": "payable",
      "type": "function",
      "payable": true
    },
    {
      "inputs": [
        {
          "internalType": "uint32",
          "name": "_ticketId",
          "type": "uint32"
        }
      ],
      "name": "scanTicket",
      "outputs": [],
      "stateMutability": "nonpayable",
      "type": "function"
    },
    {
      "inputs": [],
      "name": "getOwnedTickets",
      "outputs": [
        {
          "components": [
            {
              "internalType": "uint256",
              "name": "ticketId",
              "type": "uint256"
            },
            {
              "components": [
                {
                  "internalType": "enum TicketFactory.Category",
                  "name": "category",
                  "type": "uint8"
                },
                {
                  "internalType": "uint256",
                  "name": "expires_at",
                  "type": "uint256"
                },
                {
                  "internalType": "uint8",
                  "name": "validations",
                  "type": "uint8"
                }
              ],
              "internalType": "struct TicketFactory.Ticket",
              "name": "ticket",
              "type": "tuple"
            }
          ],
          "internalType": "struct TicketFactory.TicketResponse[]",
          "name": "",
          "type": "tuple[]"
        }
      ],
      "stateMutability": "view",
      "type": "function",
      "constant": true
    },
    {
      "inputs": [
        {
          "internalType": "uint256",
          "name": "_ticketId",
          "type": "uint256"
        }
      ],
      "name": "getTicketScans",
      "outputs": [
        {
          "internalType": "uint256[]",
          "name": "",
          "type": "uint256[]"
        }
      ],
      "stateMutability": "view",
      "type": "function",
      "constant": true
    },
    {
      "inputs": [
        {
          "internalType": "uint32",
          "name": "_seconds",
          "type": "uint32"
        }
      ],
      "name": "changeExpirationSeconds",
      "outputs": [],
      "stateMutability": "nonpayable",
      "type": "function"
    },
    {
      "inputs": [
        {
          "internalType": "uint256",
          "name": "_TicketFee",
          "type": "uint256"
        }
      ],
      "name": "changeCreateTicketFee",
      "outputs": [],
      "stateMutability": "nonpayable",
      "type": "function"
    },
    {
      "inputs": [
        {
          "internalType": "address",
          "name": "_address",
          "type": "address"
        }
      ],
      "name": "addAgentToWhitelist",
      "outputs": [],
      "stateMutability": "nonpayable",
      "type": "function"
    },
    {
      "inputs": [
        {
          "internalType": "address",
          "name": "_address",
          "type": "address"
        }
      ],
      "name": "isAgent",
      "outputs": [
        {
          "internalType": "bool",
          "name": "",
          "type": "bool"
        }
      ],
      "stateMutability": "view",
      "type": "function",
      "constant": true
    }
  ],
  "bytecode": "0x608060405262015180600760006101000a81548163ffffffff021916908363ffffffff16021790555066038d7ea4c6800060085534801561003f57600080fd5b5061005c61005161006160201b60201c565b61006960201b60201c565b61012d565b600033905090565b60008060009054906101000a900473ffffffffffffffffffffffffffffffffffffffff169050816000806101000a81548173ffffffffffffffffffffffffffffffffffffffff021916908373ffffffffffffffffffffffffffffffffffffffff1602179055508173ffffffffffffffffffffffffffffffffffffffff168173ffffffffffffffffffffffffffffffffffffffff167f8be0079c531659141344cd1fd0a4f28419497f9722a3daafe3b4186f6b6457e060405160405180910390a35050565b611bf18061013c6000396000f3fe6080604052600436106100c25760003560e01c8063882f72851161007f578063c4e677f511610059578063c4e677f514610254578063d1b00a8814610292578063e3e32ed8146102ae578063f2fde38b146102eb576100c2565b8063882f7285146101d75780638da5cb5b14610200578063b9b4e9221461022b576100c2565b806314f04198146100c75780631ffbb064146100f2578063228cba331461012f57806350b44712146101585780635556ac0c14610197578063715018a6146101c0575b600080fd5b3480156100d357600080fd5b506100dc610314565b6040516100e99190611754565b60405180910390f35b3480156100fe57600080fd5b506101196004803603810190610114919061133c565b6105cf565b6040516101269190611798565b60405180910390f35b34801561013b57600080fd5b50610156600480360381019061015191906113b7565b610625565b005b34801561016457600080fd5b5061017f600480360381019061017a919061138e565b6106c5565b60405161018e939291906117b3565b60405180910390f35b3480156101a357600080fd5b506101be60048036038101906101b9919061133c565b610719565b005b3480156101cc57600080fd5b506101d56107f0565b005b3480156101e357600080fd5b506101fe60048036038101906101f9919061138e565b610878565b005b34801561020c57600080fd5b506102156108fe565b6040516102229190611710565b60405180910390f35b34801561023757600080fd5b50610252600480360381019061024d91906113b7565b610927565b005b34801561026057600080fd5b5061027b6004803603810190610276919061138e565b610ba2565b60405161028992919061172b565b60405180910390f35b6102ac60048036038101906102a79190611365565b610bf6565b005b3480156102ba57600080fd5b506102d560048036038101906102d0919061138e565b610e87565b6040516102e29190611776565b60405180910390f35b3480156102f757600080fd5b50610312600480360381019061030d919061133c565b6110a8565b005b60606000600660003373ffffffffffffffffffffffffffffffffffffffff1673ffffffffffffffffffffffffffffffffffffffff1681526020019081526020016000205467ffffffffffffffff811115610397577f4e487b7100000000000000000000000000000000000000000000000000000000600052604160045260246000fd5b6040519080825280602002602001820160405280156103d057816020015b6103bd61126c565b8152602001906001900390816103b55790505b5090506000805b6001805490508110156105c6573373ffffffffffffffffffffffffffffffffffffffff166004600083815260200190815260200160002060009054906101000a900473ffffffffffffffffffffffffffffffffffffffff1673ffffffffffffffffffffffffffffffffffffffff1614156105b357604051806040016040528082815260200160018381548110610496577f4e487b7100000000000000000000000000000000000000000000000000000000600052603260045260246000fd5b90600052602060002090600302016040518060600160405290816000820160009054906101000a900460ff1660038111156104fa577f4e487b7100000000000000000000000000000000000000000000000000000000600052602160045260246000fd5b6003811115610532577f4e487b7100000000000000000000000000000000000000000000000000000000600052602160045260246000fd5b8152602001600182015481526020016002820160009054906101000a900460ff1660ff1660ff1681525050815250838381518110610599577f4e487b7100000000000000000000000000000000000000000000000000000000600052603260045260246000fd5b602002602001018190525081806105af90611a81565b9250505b80806105be90611a81565b9150506103d7565b50819250505090565b6000600360008373ffffffffffffffffffffffffffffffffffffffff1673ffffffffffffffffffffffffffffffffffffffff16815260200190815260200160002060009054906101000a900460ff169050919050565b61062d6111a0565b73ffffffffffffffffffffffffffffffffffffffff1661064b6108fe565b73ffffffffffffffffffffffffffffffffffffffff16146106a1576040517f08c379a00000000000000000000000000000000000000000000000000000000081526004016106989061182a565b60405180910390fd5b80600760006101000a81548163ffffffff021916908363ffffffff16021790555050565b600181815481106106d557600080fd5b90600052602060002090600302016000915090508060000160009054906101000a900460ff16908060010154908060020160009054906101000a900460ff16905083565b6107216111a0565b73ffffffffffffffffffffffffffffffffffffffff1661073f6108fe565b73ffffffffffffffffffffffffffffffffffffffff1614610795576040517f08c379a000000000000000000000000000000000000000000000000000000000815260040161078c9061182a565b60405180910390fd5b6001600360008373ffffffffffffffffffffffffffffffffffffffff1673ffffffffffffffffffffffffffffffffffffffff16815260200190815260200160002060006101000a81548160ff02191690831515021790555050565b6107f86111a0565b73ffffffffffffffffffffffffffffffffffffffff166108166108fe565b73ffffffffffffffffffffffffffffffffffffffff161461086c576040517f08c379a00000000000000000000000000000000000000000000000000000000081526004016108639061182a565b60405180910390fd5b61087660006111a8565b565b6108806111a0565b73ffffffffffffffffffffffffffffffffffffffff1661089e6108fe565b73ffffffffffffffffffffffffffffffffffffffff16146108f4576040517f08c379a00000000000000000000000000000000000000000000000000000000081526004016108eb9061182a565b60405180910390fd5b8060088190555050565b60008060009054906101000a900473ffffffffffffffffffffffffffffffffffffffff16905090565b600360003373ffffffffffffffffffffffffffffffffffffffff1673ffffffffffffffffffffffffffffffffffffffff16815260200190815260200160002060009054906101000a900460ff166109b3576040517f08c379a00000000000000000000000000000000000000000000000000000000081526004016109aa9061180a565b60405180910390fd5b600060018263ffffffff16815481106109f5577f4e487b7100000000000000000000000000000000000000000000000000000000600052603260045260246000fd5b9060005260206000209060030201905042816001015411610a4b576040517f08c379a0000000000000000000000000000000000000000000000000000000008152600401610a429061184a565b60405180910390fd5b600260405180604001604052803373ffffffffffffffffffffffffffffffffffffffff16815260200142815250908060018154018082558091505060019003906000526020600020906002020160009091909190915060008201518160000160006101000a81548173ffffffffffffffffffffffffffffffffffffffff021916908373ffffffffffffffffffffffffffffffffffffffff16021790555060208201518160010155505060006001600280549050610b0891906119b1565b90508263ffffffff16600560008381526020019081526020016000208190555081600201600081819054906101000a900460ff1680929190610b4990611aca565b91906101000a81548160ff021916908360ff160217905550507febaa6270e2d0d83cb784017d4639d7bfcafc3f10074c71f6386ef95964c9d4ae833342604051610b95939291906118a1565b60405180910390a1505050565b60028181548110610bb257600080fd5b90600052602060002090600202016000915090508060000160009054906101000a900473ffffffffffffffffffffffffffffffffffffffff16908060010154905082565b6008543414610c0457600080fd5b60003390508073ffffffffffffffffffffffffffffffffffffffff166108fc60085434610c3191906119b1565b9081150290604051600060405180830381858888f19350505050158015610c5c573d6000803e3d6000fd5b506000600760009054906101000a900463ffffffff1663ffffffff1642610c83919061195b565b905060016040518060600160405280856003811115610ccb577f4e487b7100000000000000000000000000000000000000000000000000000000600052602160045260246000fd5b8152602001838152602001600060ff16815250908060018154018082558091505060019003906000526020600020906003020160009091909190915060008201518160000160006101000a81548160ff02191690836003811115610d58577f4e487b7100000000000000000000000000000000000000000000000000000000600052602160045260246000fd5b02179055506020820151816001015560408201518160020160006101000a81548160ff021916908360ff1602179055505050600060018080549050610d9d91906119b1565b9050336004600083815260200190815260200160002060006101000a81548173ffffffffffffffffffffffffffffffffffffffff021916908373ffffffffffffffffffffffffffffffffffffffff160217905550600660003373ffffffffffffffffffffffffffffffffffffffff1673ffffffffffffffffffffffffffffffffffffffff1681526020019081526020016000206000815480929190610e4190611a81565b91905055507f826243cab7fd4774fd35b0b16812d719acd96a15e2d30ad176a73682d0032a41818584604051610e799392919061186a565b60405180910390a150505050565b6060600060018381548110610ec5577f4e487b7100000000000000000000000000000000000000000000000000000000600052603260045260246000fd5b90600052602060002090600302016040518060600160405290816000820160009054906101000a900460ff166003811115610f29577f4e487b7100000000000000000000000000000000000000000000000000000000600052602160045260246000fd5b6003811115610f61577f4e487b7100000000000000000000000000000000000000000000000000000000600052602160045260246000fd5b8152602001600182015481526020016002820160009054906101000a900460ff1660ff1660ff168152505090506000816040015160ff1667ffffffffffffffff811115610fd7577f4e487b7100000000000000000000000000000000000000000000000000000000600052604160045260246000fd5b6040519080825280602002602001820160405280156110055781602001602082028036833780820191505090505b5090506000805b60028054905081101561109c578560056000838152602001908152602001600020541415611089578083838151811061106e577f4e487b7100000000000000000000000000000000000000000000000000000000600052603260045260246000fd5b602002602001018181525050818061108590611a81565b9250505b808061109490611a81565b91505061100c565b50819350505050919050565b6110b06111a0565b73ffffffffffffffffffffffffffffffffffffffff166110ce6108fe565b73ffffffffffffffffffffffffffffffffffffffff1614611124576040517f08c379a000000000000000000000000000000000000000000000000000000000815260040161111b9061182a565b60405180910390fd5b600073ffffffffffffffffffffffffffffffffffffffff168173ffffffffffffffffffffffffffffffffffffffff161415611194576040517f08c379a000000000000000000000000000000000000000000000000000000000815260040161118b906117ea565b60405180910390fd5b61119d816111a8565b50565b600033905090565b60008060009054906101000a900473ffffffffffffffffffffffffffffffffffffffff169050816000806101000a81548173ffffffffffffffffffffffffffffffffffffffff021916908373ffffffffffffffffffffffffffffffffffffffff1602179055508173ffffffffffffffffffffffffffffffffffffffff168173ffffffffffffffffffffffffffffffffffffffff167f8be0079c531659141344cd1fd0a4f28419497f9722a3daafe3b4186f6b6457e060405160405180910390a35050565b60405180604001604052806000815260200161128661128c565b81525090565b6040518060600160405280600060038111156112d1577f4e487b7100000000000000000000000000000000000000000000000000000000600052602160045260246000fd5b815260200160008152602001600060ff1681525090565b6000813590506112f781611b66565b92915050565b60008135905061130c81611b7d565b92915050565b60008135905061132181611b8d565b92915050565b60008135905061133681611ba4565b92915050565b60006020828403121561134e57600080fd5b600061135c848285016112e8565b91505092915050565b60006020828403121561137757600080fd5b6000611385848285016112fd565b91505092915050565b6000602082840312156113a057600080fd5b60006113ae84828501611312565b91505092915050565b6000602082840312156113c957600080fd5b60006113d784828501611327565b91505092915050565b60006113ec8383611654565b60808301905092915050565b600061140483836116c5565b60208301905092915050565b611419816119e5565b82525050565b600061142a826118f8565b6114348185611928565b935061143f836118d8565b8060005b8381101561147057815161145788826113e0565b97506114628361190e565b925050600181019050611443565b5085935050505092915050565b600061148882611903565b6114928185611939565b935061149d836118e8565b8060005b838110156114ce5781516114b588826113f8565b97506114c08361191b565b9250506001810190506114a1565b5085935050505092915050565b6114e4816119f7565b82525050565b6114f381611a5d565b82525050565b61150281611a5d565b82525050565b600061151560268361194a565b91507f4f776e61626c653a206e6577206f776e657220697320746865207a65726f206160008301527f64647265737300000000000000000000000000000000000000000000000000006020830152604082019050919050565b600061157b60288361194a565b91507f4f6e6c792077686974656c6973746564206167656e74732063616e207363616e60008301527f207469636b6574730000000000000000000000000000000000000000000000006020830152604082019050919050565b60006115e160208361194a565b91507f4f776e61626c653a2063616c6c6572206973206e6f7420746865206f776e65726000830152602082019050919050565b600061162160118361194a565b91507f5469636b657420697320657870697265640000000000000000000000000000006000830152602082019050919050565b60808201600082015161166a60008501826116c5565b50602082015161167d6020850182611683565b50505050565b60608201600082015161169960008501826114ea565b5060208201516116ac60208501826116c5565b5060408201516116bf60408501826116f2565b50505050565b6116ce81611a36565b82525050565b6116dd81611a36565b82525050565b6116ec81611a6f565b82525050565b6116fb81611a50565b82525050565b61170a81611a50565b82525050565b60006020820190506117256000830184611410565b92915050565b60006040820190506117406000830185611410565b61174d60208301846116d4565b9392505050565b6000602082019050818103600083015261176e818461141f565b905092915050565b60006020820190508181036000830152611790818461147d565b905092915050565b60006020820190506117ad60008301846114db565b92915050565b60006060820190506117c860008301866114f9565b6117d560208301856116d4565b6117e26040830184611701565b949350505050565b6000602082019050818103600083015261180381611508565b9050919050565b600060208201905081810360008301526118238161156e565b9050919050565b60006020820190508181036000830152611843816115d4565b9050919050565b6000602082019050818103600083015261186381611614565b9050919050565b600060608201905061187f60008301866116d4565b61188c60208301856114f9565b61189960408301846116d4565b949350505050565b60006060820190506118b660008301866116e3565b6118c36020830185611410565b6118d060408301846116d4565b949350505050565b6000819050602082019050919050565b6000819050602082019050919050565b600081519050919050565b600081519050919050565b6000602082019050919050565b6000602082019050919050565b600082825260208201905092915050565b600082825260208201905092915050565b600082825260208201905092915050565b600061196682611a36565b915061197183611a36565b9250827fffffffffffffffffffffffffffffffffffffffffffffffffffffffffffffffff038211156119a6576119a5611af4565b5b828201905092915050565b60006119bc82611a36565b91506119c783611a36565b9250828210156119da576119d9611af4565b5b828203905092915050565b60006119f082611a16565b9050919050565b60008115159050919050565b6000819050611a1182611b52565b919050565b600073ffffffffffffffffffffffffffffffffffffffff82169050919050565b6000819050919050565b600063ffffffff82169050919050565b600060ff82169050919050565b6000611a6882611a03565b9050919050565b6000611a7a82611a40565b9050919050565b6000611a8c82611a36565b91507fffffffffffffffffffffffffffffffffffffffffffffffffffffffffffffffff821415611abf57611abe611af4565b5b600182019050919050565b6000611ad582611a50565b915060ff821415611ae957611ae8611af4565b5b600182019050919050565b7f4e487b7100000000000000000000000000000000000000000000000000000000600052601160045260246000fd5b7f4e487b7100000000000000000000000000000000000000000000000000000000600052602160045260246000fd5b60048110611b6357611b62611b23565b5b50565b611b6f816119e5565b8114611b7a57600080fd5b50565b60048110611b8a57600080fd5b50565b611b9681611a36565b8114611ba157600080fd5b50565b611bad81611a40565b8114611bb857600080fd5b5056fea264697066735822122006743eb46fc97004d86817d45e586c63053294696078bc96464d6b47a57f028664736f6c63430008000033",
  "immutableReferences": {},
  "source": "// SPDX-License-Identifier: MIT\npragma solidity ^0.8.0;\n\nimport \"@openzeppelin/contracts/access/Ownable.sol\";\n\ncontract TicketFactory is Ownable {\n    event NewTicket(\n        uint256 ticketId,\n        Category category,\n        uint256 expires_at\n    );\n    event TicketScanned(uint256 ticketId, address agent, uint256 created_at);\n\n    enum Category {\n        VISITEUR,\n        AGENT,\n        DELEGATION,\n        AUTRES\n    }\n\n    struct Ticket {\n        Category category;\n        uint256 expires_at;\n        uint8 validations;\n    }\n\n    struct TicketResponse {\n        uint256 ticketId;\n        Ticket ticket;\n    }\n\n    struct Scan {\n        address agent;\n        uint256 created_at;\n    }\n\n    Ticket[] public tickets;\n    Scan[] public scans;\n\n    mapping(address => bool) private _whitelist;\n    mapping(uint256 => address) private _ticketToOwner;\n    mapping(uint256 => uint256) private _scanToTicket;\n    mapping(address => uint256) private _ownerTicketCount;\n\n    uint32 private _expiration_seconds = 60 * 60 * 24; // one day\n    uint256 private _createTicketFee = 0.001 ether;\n\n    function createTicket(Category _category) external payable {\n        require(msg.value == _createTicketFee);\n        address payable sender = payable(msg.sender);\n        sender.transfer(msg.value - _createTicketFee);\n        uint256 expiration_date = block.timestamp + _expiration_seconds;\n        // bytes32 randomBytes = keccak256(\n        //     abi.encodePacked(msg.sender, block.timestamp)\n        // );\n        tickets.push(Ticket(_category, expiration_date, 0));\n        uint256 id = tickets.length - 1;\n        _ticketToOwner[id] = msg.sender;\n        _ownerTicketCount[msg.sender]++;\n        emit NewTicket(id, _category, expiration_date);\n    }\n\n    function scanTicket(uint32 _ticketId) external {\n        require(\n            _whitelist[msg.sender],\n            \"Only whitelisted agents can scan tickets\"\n        );\n\n        Ticket storage ticket = tickets[_ticketId];\n\n        require(ticket.expires_at > block.timestamp, \"Ticket is expired\");\n\n        scans.push(Scan(msg.sender, block.timestamp));\n        uint256 id = scans.length - 1;\n        _scanToTicket[id] = _ticketId;\n        ticket.validations++;\n        emit TicketScanned(_ticketId, msg.sender, block.timestamp);\n    }\n\n    function getOwnedTickets() external view returns (TicketResponse[] memory) {\n        TicketResponse[] memory ownedTickets = new TicketResponse[](\n            _ownerTicketCount[msg.sender]\n        );\n        uint256 counter = 0;\n        for (uint256 i = 0; i < tickets.length; i++) {\n            if (_ticketToOwner[i] == msg.sender) {\n                ownedTickets[counter] = TicketResponse(i, tickets[i]);\n                counter++;\n            }\n        }\n        return ownedTickets;\n    }\n\n    function getTicketScans(uint256 _ticketId)\n        external\n        view\n        returns (uint256[] memory)\n    {\n        Ticket memory ticket = tickets[_ticketId];\n        uint256[] memory ticketScans = new uint256[](ticket.validations);\n        uint256 counter = 0;\n        for (uint256 i = 0; i < scans.length; i++) {\n            if (_scanToTicket[i] == _ticketId) {\n                ticketScans[counter] = i;\n                counter++;\n            }\n        }\n        return ticketScans;\n    }\n\n    function changeExpirationSeconds(uint32 _seconds) external onlyOwner {\n        _expiration_seconds = _seconds;\n    }\n\n    function changeCreateTicketFee(uint256 _TicketFee) external onlyOwner {\n        _createTicketFee = _TicketFee;\n    }\n\n    function addAgentToWhitelist(address _address) external onlyOwner {\n        _whitelist[_address] = true;\n    }\n\n    function isAgent(address _address) external view returns (bool) {\n        return _whitelist[_address];\n    }\n}\n",
  "sourcePath": "/home/reloadaxe/Bureau/Programmation/blockchain/jo2024/contracts/TicketFactory.sol",
  "compiler": {
    "name": "solc",
    "version": "0.8.0+commit.c7dfd78e.Emscripten.clang"
  },
  "schemaVersion": "3.4.3",
  "updatedAt": "2021-08-26T09:48:15.394Z",
  "networkType": "ethereum",
  "devdoc": {
    "kind": "dev",
    "methods": {
      "owner()": {
        "details": "Returns the address of the current owner."
      },
      "renounceOwnership()": {
        "details": "Leaves the contract without owner. It will not be possible to call `onlyOwner` functions anymore. Can only be called by the current owner. NOTE: Renouncing ownership will leave the contract without an owner, thereby removing any functionality that is only available to the owner."
      },
      "transferOwnership(address)": {
        "details": "Transfers ownership of the contract to a new account (`newOwner`). Can only be called by the current owner."
      }
    },
    "version": 1
  },
  "userdoc": {
    "kind": "user",
    "methods": {},
    "version": 1
  }
}